:060000000A128A11EB2F29
:100B86000130831203139F008E30831603139F00D8
:100B96000D30F000F00BCD2D08007634F434FF3420
:100BA600693454343A342034323432342E343334C3
:100BB600433400340034003400347E088A007F0851
:100BC60082000A128A11E0250A128A118000840A1C
:100BD60004087D0603190034FF0A0319FE0AE42DF2
:100BE600F500F601072EF001F00A76087507F40005
:100BF6007408840000080A128A113B260A128A1118
:100C06000130F4007408F60776087507F4007408D6
:100C1600840083130008031D112E122EF62D0800E2
:100C2600F400C730F2007208831203139F0574089C
:100C36000739F20002300310F20DFF3E031D1E2E8F
:100C46000310720DF30073089F040630F200F20BD6
:100C56002A2E0000831203131F151F19332E342E5C
:100C6600302E1E08F100831603131E08F00008003C
:100C7600F30083120313891473088800700803199C
:100C8600452E462E482E09154C2EFB30F1007108D4
:100C960089050830F200C930F100F10B502EF20B35
:100CA600502E552EFD30F10071088312031389056D
:100CB6000830F200C930F100F10B5F2EF20B5F2E07
:100CC600642E8312031389140800BF30F9007908D3
:100CD60083160313870587172030980090308312F8
:100CE600031398008B170B17831603138C168312A6
:100CF6000313BC013608F9003708FA003808FB0070
:100D06003908FC0006300310F90DFA0DFB0DFC0D39
:100D1600FF3E031D862E7C08F3007B08F2007A084E
:100D2600F1007908F0000030F7007A30F600123052
:100D3600F5000030F4000A128A114E270A128A11B1
:100D46007008FF3E83160313990008000A128A11E1
:100D5600EE260A128A11003083120313B9000030FE
:100D6600B8002530B7008030B6000A128A1168260E
:100D76000A128A110A128A11C3250A128A1101302F
:100D86008312031385007D08031DCA2ECB2ED32E96
:100D960024300A128A11F3250A128A11FD01FD0A6E
:100DA60083160313880100300A128A1113260A12C9
:100DB6008A11700883120313BA007108BB003B0D39
:100DC600BB0CBA0C3B0DBB0CBA0C3A088800D62EED
:100DD6000A128A1100288316031389018801F93043
:100DE6008312031389003430F500F130F400F40B5C
:100DF600FA2EF50BFA2EFF2E02308312031389000A
:100E0600F00138300A128A113B260A128A110D3077
:100E1600F500FB30F400F40B0E2FF50B0E2F132FFD
:100E2600F00138300A128A113B260A128A11033061
:100E3600F5009730F400F40B1E2FF50B1E2F232F11
:100E4600F00138300A128A113B260A128A11F00183
:100E560008300A128A113B260A128A11F0010F3055
:100E66000A128A113B260A128A11F00101300A126F
:100E76008A113B260A128A11F0010E300A128A11D3
:100E86003B260A128A11F00180300A128A113B268B
:100E96000A128A11080083120313B101F31F542F9B
:100EA600552F622FF009F109F209F309F00A031927
:100EB600F10A0319F20A0319F30AB101B10AF71F7D
:100EC600652F662F752FF409F509F609F709F40A57
:100ED6000319F50A0319F60A0319F70A0130F8008F
:100EE6007808B1060030B5000030B4000030B30019
:100EF6000030B20073087204710470040319842F61
:100F0600852FD22FB001B00A952F0130F8000310BB
:100F1600F00DF10DF20DF30DF80B8A2F0130F800EC
:100F26007808B007F31F982F992F882F0130F80003
:100F36000310B20DB30DB40DB50DF80B9B2F73084E
:100F46007702031DB02F72087602031DB02F7108B9
:100F56007502031DB02F70087402031CB32FB42F43
:100F6600C32F7008F4027108031C710FF502720892
:100F7600031C720FF6027308031C730FF702321478
:100F860001300310F30CF20CF10CF00CFF3E031DC4
:100F9600C42F0130B002031DD12FD22F992F310853
:100FA6000319D62FD72FE22FB209B309B409B50911
:100FB600B20A0319B30A0319B40A0319B50A3508A4
:100FC600F3003408F2003308F1003208F00008009C
:100FD60083133030FD000530FE00D030FF00203096
:100FE60084000A128A11E4250A128A11BC01BD0185
:0A0FF600FD0183010A128A11A92EE1
:02400E00F23F7F
:00000001FF
