:060000000A128A11DB2F39
:10085E0020342034203420342034203420342034EA
:10086E0020342034203420342034203420342034DA
:10087E0000347E088A007F0882000A128A11402402
:10088E000A128A118000840A04087D0603190034B6
:10089E00FF0A0319FE0A442C043083160313850045
:1008AE009130831203139F008930831603139F0028
:1008BE008230F100DD30F000F00B632CF10B632C75
:1008CE00682C0800F5007503031D6E2C6F2C782C18
:1008DE00F0017408803E0A128A1105250A128A1147
:1008EE00862C02307506031D7D2C7E2C862CF00185
:1008FE007408C03E0A128A1105250A128A110800D0
:10090E00F401F501701C8C2C8D2C932C7208F407BD
:10091E000318F50A7308F50701300310F20DF30DF5
:10092E00FF3E031D942C01300310F10CF00CFF3E22
:10093E00031D9B2C70087104031DA62CA72C892C5B
:10094E007508F1007408F0000800FA00F901CC2CCB
:10095E0079087707F8007808F40076080A128A11E9
:10096E0069240A128A11F001F00A79087A07F80050
:10097E0078088400831300080A128A1105250A12CA
:10098E008A110130F8007808F90779087A07F8001B
:10099E007808840083130008031DD62CD72CAF2CA7
:1009AE00080004308316031385007008F20003302C
:1009BE000310F20DFF3E031DDF2C831203131F08DD
:1009CE00C73972049F008230F300DD30F200F20B63
:1009DE00EE2CF30BEE2CF32C831203131F080438AA
:1009EE009F001F08FB390319FD2CFE2CF82C1E0846
:1009FE00F100831603131E08F0000800F3008312A3
:100A0E000313891473088800700803190F2D102D15
:100A1E00122D0915162DFB30F100710889051430C1
:100A2E00F2007930F100F10B1A2DF20B1A2D1F2D59
:100A3E00FD30F10071088312031389051430F200A2
:100A4E007930F100F10B292DF20B292D2E2D831269
:100A5E00031389140800233441347034653472341E
:100A6E0074347534723461342034503400340034AC
:100A7E004334683469347534733475347234613484
:100A8E00203450340034003454346D3470343A34DD
:100A9E000034003442347534693473347934463456
:100AAE007234653465340034573443343A34003488
:100ABE008312031353085502F7005408031C540AFB
:100ACE005602F80053085102F0005408031C540A51
:100ADE005202F10057085902F2005808031C580A36
:100AEE005A02F3000A128A1187240A128A11710817
:100AFE00FA007008F9000A128A1188260A128A1161
:100B0E008312031357087707D10058080318580AA1
:100B1E007807D20008000A30F7000030F800831280
:100B2E0003135208F3005108F2006430F000003055
:100B3E00F1000A128A11D0250A128A117108FA00E0
:100B4E007008F9000A128A1188260A128A1177088B
:100B5E00303EFC007C0883120313E0000A30F000E4
:100B6E000030F1005208F3005108F2000A128A1107
:100B7E00D0250A128A117008303EFC007C088312C0
:100B8E000313E1004330FC007C08E200E301E401C2
:100B9E000800F601F31FD42DD52DDC2DF209F30933
:100BAE00F20A0319F30AF601F60AF11FDF2DE02D02
:100BBE00E52DF009F109F00A0319F10A7008710424
:100BCE000319EA2DEB2D1A2EF501F50AF92D013038
:100BDE000310F00DF10DFF3E031DEF2D0130F4005B
:100BEE007408F507F11FFC2DFD2DEE2D7108730213
:100BFE00031D032E70087202031C062E072E0D2EE7
:100C0E007008F2027108031CF303F30201300310A3
:100C1E00F10CF00CFF3E031D0E2E0130F502031DEC
:100C2E00192E1A2EFD2D760803191E2E1F2E242E78
:100C3E00F209F309F20A0319F30A7308F1007208B4
:100C4E00F00008008316031389018801F93083121E
:100C5E00031389008230F500DD30F400F40B352EDD
:100C6E00F50B352E3A2E0230831203138900F00154
:100C7E0038300A128A1105250A128A112130F50020
:100C8E007630F400F40B492EF50B492E0000F001DE
:100C9E0038300A128A1105250A128A110730F5001A
:100CAE007D30F400F40B592EF50B592EF00138302F
:100CBE000A128A1105250A128A11F00108300A1249
:100CCE008A1105250A128A11F0010F300A128A11B3
:100CDE0005250A128A11F00101300A128A11052522
:100CEE000A128A11F0010E300A128A1105250A1213
:100CFE008A11F00180300A128A1105250A128A1112
:100D0E00080083120313CE01F81F8E2E8F2E962EFF
:100D1E00F709F809F70A0319F80ACE01CE0AFA1FE5
:100D2E00992E9A2EA32EF909FA09F90A0319FA0A2D
:100D3E000130FB007B08CE06CF01D0017708780486
:100D4E000319AA2EAB2EE22ECD01CD0AB92E0130FB
:100D5E000310F70DF80DFF3E031DAF2E0130FB0003
:100D6E007B08CD07F81FBC2EBD2EAE2E0130031012
:100D7E00CF0DD00DFF3E031DBE2E78087A02031D47
:100D8E00CA2E77087902031CCD2ECE2ED52E7708CB
:100D9E00F9027808031CFA03FA024F14013003100B
:100DAE00F80CF70CFF3E031DD62E0130CD02031DAD
:100DBE00E12EE22EBD2E4E080319E62EE72EEC2E66
:100DCE00CF09D009CF0A0319D00A5008F8004F08EE
:100DDE00F70008008316031388013830860083124B
:100DEE00031388018316031387010A128A115324F1
:100DFE000A128A110A128A1129260A128A11F00180
:100E0E000C300A128A1105250A128A110230F000DE
:100E1E000030F1000A128A11D8240A128A117108C0
:100E2E0083120313DE007008DD005D0888005E0883
:100E3E00D2005D08D1003830D3000030D4009E308F
:100E4E00D5000030D6001C30D7000030D8004E3010
:100E5E00D9000030DA000A128A115F250A128A11AF
:100E6E00831203135108DB005B08DF0023305F029F
:100E7E000318422F432F492F87162030DB005B08C3
:100E8E0087054E2F07150430DB005B0887055F08CA
:100E9E00DB00DC015B08D1005C08D2000A128A116B
:100EAE0092250A128A11F601F60AF70139300A1252
:100EBE008A11AC240A128A11F601F60A0430831242
:100ECE000313DB005B08F70060300A128A11AC24B2
:100EDE000A128A11F601F60A083083120313DB0098
:100EEE005B08F70049300A128A11AC240A128A11E3
:100EFE00103083120313DB005B088605031D882F59
:100F0E00892F952F0230DB005B08F600F7012D309C
:100F1E000A128A11AC240A128A11B42F0830DB008F
:100F2E005B088605031D9C2F9D2FA92F0230DB0029
:100F3E005B08F600F70121300A128A11AC240A125E
:100F4E008A11B42F0230DB005B08F600F701A030E7
:100F5E000A128A11AC240A128A112030831203134A
:100F6E00DB005B088605031DBD2FBE2FCB2FF601C0
:100F7E00F60A0B30DB005B08F7003F300A128A11CD
:100F8E00AC240A128A110D2FF601F60A0B30DB0083
:100F9E005B08F70044300A128A11AC240A128A1137
:100FAE000D2F0A128A1100288313B130FD00043070
:100FBE00FE002F30FF00A03084000A128A11442454
:100FCE000A128A114D30FD000530FE003230FF004E
:100FDE00203084000A128A1144240A128A11DF0179
:100FEE00E001E101E201E301E40183010A128A1149
:020FFE00F12ED2
:02400E00F23F7F
:00000001FF
