:08000000803102288731F42F42
:100E8200640080010131890B422F0034F0004E01D1
:100E92000F1E4C2F4D2F482F700842019A00080058
:100EA2004001940195010030F3000030F20025303A
:100EB200F1008030F0008731602787310800BF30B1
:100EC200F4007408400193059317083042019F0013
:100ED20090309D0024309E001F309B0002309C0009
:100EE20017307D01CB0010307E01A600080087314B
:100EF2005127873140011014FA01FB014430F500FB
:100F02007508F700F801FE30F5007508F900780859
:100F12008731472787310730F5007D30890B8F2FC6
:100F2200F50B8F2F0000790887314727873107306B
:100F3200F5007D30890B9B2FF50B9B2F0000770866
:100F42008731472787310730F5007D30890BA72F7E
:100F5200F50BA72F00007808873147278731073024
:100F6200F5007D30890BB32FF50BB32F0000790804
:100F72008731472787310730F5007D30890BBF2F36
:100F8200F50BBF2F000077088731472787310130E3
:100F9200F5007A0ACD2FF535890BCC2F7508400163
:100FA2008F001A30F6005E30F5006E30890BD72FB5
:100FB200F50BD72FF60BD72F00320130FA0700308E
:100FC200FB3D7B08803AF50080307502031DEB2F54
:100FD20008307A02031CEE2FEF2F882FFA01FB0153
:100FE200882F80310228FC012030840000308500E7
:0E0FF200343087314127873140018731782F15
:020000040001F9
:0A000E00FA3FFF3F9F3FFF3FFF3F17
:00000001FF
