:060000000A128A110C280F
:10000800FE00030EF1000A08F2000A128A11842980
:100018000A128A110F288313C030FD000130FE0038
:100028006430FF00A03084000A128A11A2210A124B
:100038008A11D301D401D501D601D701D801D9013C
:1000480083010A128A11C52883120313A201F61F1D
:100058002E282F283C28F309F409F509F609F30A94
:100068000319F40A0319F50A0319F60AA201A20AE8
:10007800FA1F3F2840284F28F709F809F909FA0913
:10008800F70A0319F80A0319F90A0319FA0A0130D9
:10009800A0002008A2060030A6000030A50000300D
:1000A800A4000030A30076087504740473040319CF
:1000B8005E285F28AC28A101A10A6F280130A000A2
:1000C8000310F30DF40DF50DF60DA00B64280130A7
:1000D800A0002008A107F61F7228732862280130A3
:1000E800A0000310A30DA40DA50DA60DA00B752847
:1000F80076087A02031D8A2875087902031D8A2862
:1001080074087802031D8A2873087702031C8D2857
:100118008E289D287308F7027408031C740FF802D0
:100128007508031C750FF9027608031C760FFA028E
:10013800231401300310F60CF50CF40CF30CFF3EFD
:10014800031D9E280130A102031DAB28AC2873288B
:1001580022080319B028B128BC28A309A409A509B5
:10016800A609A30A0319A40A0319A50A0319A60ACA
:100178002608F6002508F5002408F4002308F300F3
:1001880008000A128A11B1210A128A11003083125A
:100198000313AA000030A9002530A8008030A7006A
:1001A8000A128A1121210A128A1183120313890162
:1001B800D90133308400A030AF000408B0002030EB
:1001C800B1002F08840083130008B200AF0A30087A
:1001D800840032088000B00AB10BE5280130831290
:1001E80003138600063083120313B1001330B000E6
:1001F800AD30AF00AF0BFE28B00BFE28B10BFE28C8
:1002080083120313590803190A290B290E29D90146
:10021800580888008601063083120313B100133092
:10022800B000AD30AF00AF0B1729B00B1729B10BD9
:100238001729F2280A128A110C28BF3083120313D7
:10024800AB002B0883160313870587172030980007
:1002580090308312031398008B170B178316031320
:100268008C1683120313D9012708AB002808AC00A9
:100278002908AD002A08AE0006300310AB0DAC0DFE
:10028800AD0DAE0DFF3E031D41292E08F6002D08C9
:10029800F5002C08F4002B08F3000030FA007A303F
:1002A800F9001230F8000030F7000A128A112820ED
:1002B8000A128A117308FF3E831603139900080077
:1002C800433461346D34623469346F3420347434A7
:1002D80065346D3470346534723461347434753413
:1002E8007234613400340034003400340034003493
:1002F8000034003400340034003400340034003456
:10030800831203138C1E89298A2992291A08F0005E
:100318007008D80001308800D901D90A0C1E952927
:10032800962997290C1272088A00710E8300FE0E16
:100338007E0E09007E088A007F0882000A128A1150
:100348009E210A128A118000840A04087D06031976
:100358000034FF0A0319FE0AA229831603130514A1
:1003680086018701880189012030831203138500E3
:100378008801C0308B006030831603138C0008009E
:02400E00F23F7F
:00000001FF
