:060000000A128A11F42F20
:100C4A00F500F001740875070A128A1149260A127A
:100C5A008A11080083160313051486018701880187
:100C6A00890120308312031385000800F1008312E2
:100C7A0003130C1E412E422E3C2EEF30F00070085A
:100C8A008C05710899000800F30083120313891474
:100C9A007308880070080319532E542E562E09150E
:100CAA005A2EFB30F100710889050830F200C9306C
:100CBA00F100F10B5E2EF20B5E2E632EFD30F10079
:100CCA0071088312031389050830F200C930F10054
:100CDA00F10B6D2EF20B6D2E722E831203138914F3
:100CEA000800BF30F90079088316031387058717B0
:100CFA002030980090308312031398008B170B173B
:100D0A00831603138C1683120313B8012608F900FD
:100D1A002708FA002808FB002908FC0006300310FF
:100D2A00F90DFA0DFB0DFC0DFF3E031D942E7C08F8
:100D3A00F3007B08F2007A08F1007908F00000302D
:100D4A00F7007A30F6001230F5000030F4000A128B
:100D5A008A11B7260A128A117008FF3E83160313F6
:100D6A009900080083120313A101F31FBD2EBE2EA2
:100D7A00CB2EF009F109F209F309F00A0319F10A75
:100D8A000319F20A0319F30AA101A10AF71FCE2EC9
:100D9A00CF2EDE2EF409F509F609F709F40A03192C
:100DAA00F50A0319F60A0319F70A0130F800780858
:100DBA00A1060030A5000030A4000030A3000030D6
:100DCA00A20073087204710470040319ED2EEE2E4A
:100DDA003B2FA001A00AFE2E0130F8000310F00DEF
:100DEA00F10DF20DF30DF80BF32E0130F80078082F
:100DFA00A007F31F012F022FF12E0130F800031074
:100E0A00A20DA30DA40DA50DF80B042F73087702EC
:100E1A00031D192F72087602031D192F7108750216
:100E2A00031D192F70087402031C1C2F1D2F2C2F51
:100E3A007008F4027108031C710FF5027208031C92
:100E4A00720FF6027308031C730FF70222140130A3
:100E5A000310F30CF20CF10CF00CFF3E031D2D2FC6
:100E6A000130A002031D3A2F3B2F022F210803193C
:100E7A003F2F402F4B2FA209A309A409A509A20AB3
:100E8A000319A30A0319A40A0319A50A2508F300DA
:100E9A002408F2002308F1002208F00008000A12D0
:100EAA008A112F260A128A11003083120313A9000D
:100EBA000030A8002530A7008030A6000A128A1147
:100ECA0076260A128A11831203130914B101B20198
:100EDA004430AA002A08AD00AE01FE30AA002A0852
:100EEA00AF006930AA002A08B000831203132E0843
:100EFA000A128A113B260A128A110330831203133B
:100F0A00AB009730AA00AA0B882FAB0B882F83124D
:100F1A0003132F080A128A113B260A128A11033078
:100F2A0083120313AB009730AA00AA0B9A2FAB0BBC
:100F3A009A2F831203132D080A128A113B260A12CA
:100F4A008A11013083120313AA00310AAE2F03104B
:100F5A00AA0DFF3E031DAC2F2A0888000B3083120E
:100F6A000313AC002630AB005D30AA00AA0BBB2FDE
:100F7A00AB0BBB2FAC0BBB2F033083120313AA009E
:100F8A002A08F40080300A128A1125260A128A11C8
:100F9A00F001F00A8312031330080A128A11492653
:100FAA000A128A11013083120313B1070318B20A15
:100FBA000030B2073208803AFF0080307F02031DFA
:100FCA00E82F08303102031CEB2FEC2F7A2F831203
:100FDA000313B101B2017A2F0A128A11002883126F
:100FEA000313B301B401B501B601B701B801830116
:060FFA000A128A11542FB7
:02400E00F23F7F
:00000001FF
