:060000000A128A110E280D
:10000800FE00030EF1000408F2000A08F3000A12C9
:100018008A11DF290A128A11112883120313B201E7
:10002800B301B401B501B601B701B80183010A12E1
:100038008A11242A83120313A101F51F24282528D5
:100048002C28F409F509F40A0319F50AA101A10AF3
:10005800F71F2F2830283928F609F709F60A031957
:10006800F70A0130F8007808A106A201A301740874
:1000780075040319402841287828A001A00A4F28B0
:1000880001300310F40DF50DFF3E031D4528013026
:10009800F8007808A007F51F522853284428013093
:1000A8000310A20DA30DFF3E031D54287508770207
:1000B800031D602874087602031C632864286B28D3
:1000C8007408F6027508031CF703F70222140130BE
:1000D8000310F50CF40CFF3E031D6C280130A00240
:1000E800031D772878285328210803197C287D28A0
:1000F8008228A209A309A20A0319A30A2308F50062
:100108002208F40008000030F8000030F700003042
:10011800F6000030F500831203132308220421049B
:100128002004031998289928E628F901F90AA9282A
:100138000130F4000310A00DA10DA20DA30DF40BC6
:100148009E280130F4007408F907A31FAC28AD28D5
:100158009C280130F4000310F50DF60DF70DF80D8D
:10016800F40BAF2823082702031DC42822082602FF
:10017800031DC42821082502031DC42820082402C1
:10018800031CC728C828D7282008A4022108031C54
:10019800210FA5022208031C220FA6022308031C14
:1001A800230FA702751401300310A30CA20CA10C95
:1001B800A00CFF3E031DD8280130F902031DE528D5
:1001C800E628AD287808A3007708A2007608A100E1
:1001D8007508A000080083120313A101F71FF52872
:1001E800F628FD28F609F709F60A0319F70AA10106
:1001F800A10AF51F002901290629F409F509F40ABD
:100208000319F50A7408750403190B290C293B29ED
:10021800A001A00A1A2901300310F40DF50DFF3EC4
:10022800031D10290130F8007808A007F51F1D29C3
:100238001E290F2975087702031D242974087602E0
:10024800031C272928292E297408F6027508031C7F
:10025800F703F70201300310F50CF40CFF3E031D01
:100268002F290130A002031D3A293B291E29210804
:1002780003193F2940294529F609F709F60A031900
:10028800F70A7708F5007608F400080083120313CC
:10029800A9000A30F4000030F5002908A400A501DF
:1002A8002408F6002508F7000A128A111E200A12EF
:1002B8008A11740883120313A6002608A7000A30BF
:1002C800F4000030F5002908A400A5012408F60070
:1002D8002508F7000A128A11EF200A128A117408F9
:1002E80083120313A6002608A800F030A4002408EF
:1002F80086050130A400270A83290310A40DFF3EB8
:10030800031D81292408A5002508860485122808CC
:10031800013E84000A128A11AD220A128A1188004D
:1003280085160800BF3083120313AC002C0883160F
:10033800031387058717243083120313AC002C0896
:10034800831603139804903083120313AC002C080F
:1003580098042808AC002908AD002A08AE002B082C
:10036800AF0006300310AC0DAD0DAE0DAF0DFF3E66
:10037800031DB6292F08A3002E08A2002D08A100EE
:100388002C08A0000030A7007A30A6001230A50083
:100398000030A4000A128A1187200A128A118312D7
:1003A80003132008FF3E831603139900C0308B0007
:1003B80020308C0008000B1DE229E329002A0630B2
:1003C8008312031381000130F0007008B4071F3056
:1003D8003402031CF029F129FF290310861F031496
:1003E8000318F729FB29831203138617FE298312A2
:1003F80003138613B4010B11831203138C1E052AF1
:10040800062A1B2A1A08F0003808353E84007008AE
:10041800831380000130F0007008B80703303806F5
:10042800031D172A182A1A2AB301B30A8C12730853
:100438008A0072088400710E8300FE0E7E0E090089
:100448000A128A1152220A128A11831203133308DC
:1004580003192F2A302A482A0A128A1174220A12EA
:100468008A11033083120313B0003008F4003830C7
:10047800B1003108F50035300A128A1194220A12A7
:100488008A1183120313B30132080A128A114A210E
:100498000A128A11292A0A128A110E2883160313AE
:1004A8008501860187018801890183120313B4013C
:1004B800B801B301B2010A128A11D9220A128A11AB
:1004C800003083120313AB000030AA002530A900C6
:1004D8008030A8000A128A1196210A128A1108008F
:1004E800373083120313350603197B2A7C2A822AA4
:1004F8002A303506031D812A822A932A0A30F800F9
:100508007808F40036080A128A11C4220A128A11DD
:10051800831203133707F03EF9007908B200080088
:10052800F700F801A22A78087707F6007608840011
:10053800831380010130F6007608F8077408780202
:10054800031CA72AA82A972A750884008313800108
:10055800080002308A000408840A820700343F3405
:1005680006345B344F3466346D347D3407347F345D
:100578006F3477347C3439345E34793471340034F0
:10058800F700F601771CC92ACA2ACE2A7408F50092
:100598007508F6070310F40D0310F70C7708031D10
:1005A800D62AD72AC62A76080800A0308B0007303A
:1005B8008316031381000630831203138100080099
:02400E00F23F7F
:00000001FF
